:020000020000FC
:1000000000C00FEF0DBF08E00EBF60E06093C100BD
:100010000E94760050E85093610057E050936100D1
:100020003F065B4F666D7D077F6F777C395E797128
:100030005FE157B903E108B980E00FEF04B900E0D0
:1000400005B90FEF0AB9E0E2F0E044914BB990E056
:10005000A0E006B1309B16D0319B1AD055B350FFAB
:10006000F8CFA89A52E056BD83958A3054F0739524
:1000700070310CF070E075B980E0711751F70E9493
:100080006B00E7CF21D006B1309B089507D00895CB
:100090001BD006B1319B08950DD00895319613956C
:1000A00010312CF010E0E0E2F0E044914BB94491C3
:1000B0004BB90895112319F41FE03F9602C0319700
:1000C0001A9544914BB908953FEF20E23A95F1F724
:1000D0002A95E1F70895A9130E947200AFE0449AAF
:1000E0007FE0B7CF7FE0A0E04498B3CF53E055BDA9
:0600F00052E056BD089528
:00000001FF
