:020000020000FC
:100000000FEF0DBF08E00EBF60E06093C1003F0638
:100010005B4F666D7D077F6F777C395E797100E09D
:1000200007B903E008B90FEF0AB9EEE0F0E0449138
:100030004BB906B1309B03D0319B07D0FACF21D00A
:1000400006B1309B089507D008951BD006B1319BAF
:1000500008950DD008953196139510312CF010E0CD
:10006000EEE0F0E044914BB944914BB9089511236F
:1000700019F41FE03F9602C031971A9544914BB98D
:1000800008953FEF20E23A95F1F72A95E1F70895B8
:00000001FF
